{"contracts/DigitalNotebook.sol":{"DigitalNotebook":{"abi":[{"inputs":[],"stateMutability":"nonpayable","type":"constructor"},{"anonymous":false,"inputs":[{"indexed":false,"internalType":"uint256","name":"noteId","type":"uint256"},{"indexed":true,"internalType":"address","name":"owner","type":"address"}],"name":"NoteCreated","type":"event"},{"anonymous":false,"inputs":[{"indexed":false,"internalType":"uint256","name":"noteId","type":"uint256"}],"name":"NoteDeleted","type":"event"},{"anonymous":false,"inputs":[{"indexed":false,"internalType":"uint256","name":"noteId","type":"uint256"},{"indexed":true,"internalType":"address","name":"sharedWith","type":"address"}],"name":"NoteShared","type":"event"},{"anonymous":false,"inputs":[{"indexed":false,"internalType":"uint256","name":"noteId","type":"uint256"}],"name":"NoteUpdated","type":"event"},{"inputs":[{"internalType":"string","name":"content","type":"string"},{"internalType":"bool","name":"isPublic","type":"bool"}],"name":"createNote","outputs":[],"stateMutability":"nonpayable","type":"function"},{"inputs":[{"internalType":"uint256","name":"noteId","type":"uint256"}],"name":"deleteNote","outputs":[],"stateMutability":"nonpayable","type":"function"},{"inputs":[],"name":"getUserNotes","outputs":[{"internalType":"uint256[]","name":"","type":"uint256[]"}],"stateMutability":"view","type":"function"},{"inputs":[{"internalType":"uint256","name":"noteId","type":"uint256"}],"name":"readNote","outputs":[{"internalType":"string","name":"","type":"string"}],"stateMutability":"view","type":"function"},{"inputs":[{"internalType":"uint256","name":"noteId","type":"uint256"},{"internalType":"bool","name":"isPublic","type":"bool"},{"internalType":"address[]","name":"sharedWith","type":"address[]"}],"name":"updateSharing","outputs":[],"stateMutability":"nonpayable","type":"function"}],"evm":{"bytecode":{"linkReferences":{},"object":"608060405234801561001057600080fd5b5061002b6758f6dc878846ad3e60c01b61005260201b60201c565b6100456762be61c3cc7bdc2d60c01b61005260201b60201c565b6000600281905550610055565b50565b611f4e806100646000396000f3fe608060405234801561001057600080fd5b50600436106100575760003560e01c80631b08e9151461005c57806327af0f1814610078578063b4c780a314610094578063c47177f4146100b2578063d311651a146100ce575b600080fd5b610076600480360381019061007191906115c8565b6100fe565b005b610092600480360381019061008d9190611780565b610391565b005b61009c6107f2565b6040516100a991906118ad565b60405180910390f35b6100cc60048036038101906100c791906118cf565b6108c3565b005b6100e860048036038101906100e391906118cf565b610d8a565b6040516100f5919061197b565b60405180910390f35b610112679918b23c629a0b8560c01b6110af565b6101266762b17c42782219db60c01b6110af565b60026000815480929190610139906119cc565b919050555061015267fd989d58a9db598060c01b6110af565b60405180608001604052808381526020013373ffffffffffffffffffffffffffffffffffffffff1681526020018215158152602001600067ffffffffffffffff8111156101a2576101a1611465565b5b6040519080825280602002602001820160405280156101d05781602001602082028036833780820191505090505b50815250600080600254815260200190815260200160002060008201518160000190816101fd9190611c20565b5060208201518160010160006101000a81548173ffffffffffffffffffffffffffffffffffffffff021916908373ffffffffffffffffffffffffffffffffffffffff16021790555060408201518160010160146101000a81548160ff021916908315150217905550606082015181600201908051906020019061028192919061132e565b509050506102996728701339b34985df60c01b6110af565b6102ad67aefc961219cb705160c01b6110af565b600160003373ffffffffffffffffffffffffffffffffffffffff1673ffffffffffffffffffffffffffffffffffffffff1681526020019081526020016000206002549080600181540180825580915050600190039060005260206000200160009091909190915055610329678d27e64fdcb4cc2260c01b6110af565b61033d6746595551d3ff7f9560c01b6110af565b3373ffffffffffffffffffffffffffffffffffffffff167f1d39a71a40c14bee233655b3e373b6dfe3d42c9cf199fb03578b4aee93d5cbc16002546040516103859190611d01565b60405180910390a25050565b6103a56794ea07cbe97fed8c60c01b6110af565b826103ba6725f20a72775aafdd60c01b6110af565b6103ce67c0ed9e81ed1c2b3460c01b6110af565b6103e26784b851edef8919aa60c01b6110af565b6103f6670c37d9615ab8451960c01b6110af565b3373ffffffffffffffffffffffffffffffffffffffff1660008083815260200190815260200160002060010160009054906101000a900473ffffffffffffffffffffffffffffffffffffffff1673ffffffffffffffffffffffffffffffffffffffff1614610499576040517f08c379a000000000000000000000000000000000000000000000000000000000815260040161049090611d68565b60405180910390fd5b6104ad673c410438bfce59d260c01b6110af565b6104c167d6370d586ef48fee60c01b6110af565b6104d567e2a8e2876f0b914d60c01b6110af565b6104e967527781b6df8b77f660c01b6110af565b6104fd67b753f0f1586e404560c01b6110af565b6105116782bdbf6d41e4879460c01b6110af565b61052567f89f9380a3fa76f560c01b6110af565b61052e846110b2565b61056d576040517f08c379a000000000000000000000000000000000000000000000000000000000815260040161056490611dd4565b60405180910390fd5b6105816720ee158508e6d3fe60c01b6110af565b61059567c8ff8975161af40060c01b6110af565b6105a9677a04ac671d78f7dd60c01b6110af565b600080600086815260200190815260200160002090506105d36716e7142436f1852c60c01b6110af565b838160010160146101000a81548160ff0219169083151502179055506106036742c388ce854429c460c01b6110af565b80600201600061061391906113b8565b6106276789111925d81c296960c01b6110af565b61063b67ae6f9c714027384960c01b6110af565b60005b835181101561078b5761065b6739a932d1f6220c4a60c01b6110af565b61066f675db01d977858a2b760c01b6110af565b8160020184828151811061068657610685611df4565b5b60200260200101519080600181540180825580915050600190039060005260206000200160009091909190916101000a81548173ffffffffffffffffffffffffffffffffffffffff021916908373ffffffffffffffffffffffffffffffffffffffff160217905550610702678a33048a87599e8360c01b6110af565b6107166764f6adec0a41274960c01b6110af565b83818151811061072957610728611df4565b5b602002602001015173ffffffffffffffffffffffffffffffffffffffff167f387c627c94976e65d3d776f3dc1ac3543ac1cf3e5cbda5dd02465d430d57d538876040516107769190611d01565b60405180910390a2808060010191505061063e565b506107a067be5d84837835575560c01b6110af565b6107b46713a9a61336a4c7d660c01b6110af565b7f607d768ccfa87285a4d88fafc2a82975061f85e66160001d6b44e966718a88dd856040516107e39190611d01565b60405180910390a15050505050565b606061080867ad73bce91b36b67160c01b6110af565b61081c6754dc0dc82c4a787660c01b6110af565b61083067a4fe85da6c38aaa960c01b6110af565b600160003373ffffffffffffffffffffffffffffffffffffffff1673ffffffffffffffffffffffffffffffffffffffff1681526020019081526020016000208054806020026020016040519081016040528092919081815260200182805480156108b957602002820191906000526020600020905b8154815260200190600101908083116108a5575b5050505050905090565b6108d7672d3e4134a75e22ff60c01b6110af565b806108ec6725f20a72775aafdd60c01b6110af565b61090067c0ed9e81ed1c2b3460c01b6110af565b6109146784b851edef8919aa60c01b6110af565b610928670c37d9615ab8451960c01b6110af565b3373ffffffffffffffffffffffffffffffffffffffff1660008083815260200190815260200160002060010160009054906101000a900473ffffffffffffffffffffffffffffffffffffffff1673ffffffffffffffffffffffffffffffffffffffff16146109cb576040517f08c379a00000000000000000000000000000000000000000000000000000000081526004016109c290611d68565b60405180910390fd5b6109df673c410438bfce59d260c01b6110af565b6109f367d6370d586ef48fee60c01b6110af565b610a0767ee06e6eb8959747d60c01b6110af565b610a1b676369cbd9d3f9ed1360c01b6110af565b610a2f67b71c79038a0c42c760c01b6110af565b610a43673497b09e5584481c60c01b6110af565b610a57676495c5a3d240252260c01b6110af565b610a60826110b2565b610a9f576040517f08c379a0000000000000000000000000000000000000000000000000000000008152600401610a9690611dd4565b60405180910390fd5b610ab367647f4421eb7bb37060c01b6110af565b610ac767236a4f24cc1b8f4660c01b6110af565b60008083815260200190815260200160002060008082016000610aea91906113d9565b6001820160006101000a81549073ffffffffffffffffffffffffffffffffffffffff02191690556001820160146101000a81549060ff0219169055600282016000610b3591906113b8565b5050610b4b675edd238f171c1a9a60c01b6110af565b610b5f67ac7b28e32a1f29bd60c01b6110af565b6000600160003373ffffffffffffffffffffffffffffffffffffffff1673ffffffffffffffffffffffffffffffffffffffff1681526020019081526020016000209050610bb667c4061fe8953b631e60c01b6110af565b610bca678e613c25d350a4a860c01b6110af565b60005b8180549050811015610d2557610bed670ef022cccdc2d6c560c01b6110af565b610c01672a8f522e05b0100060c01b6110af565b83828281548110610c1557610c14611df4565b5b906000526020600020015403610d0457610c396719a1f4d2662b733160c01b6110af565b610c4d67d22eeb9a63cc498360c01b6110af565b8160018380549050610c5f9190611e23565b81548110610c7057610c6f611df4565b5b9060005260206000200154828281548110610c8e57610c8d611df4565b5b9060005260206000200181905550610cb067035276d125e9d55860c01b6110af565b610cc4678e6e44f5e7199a0260c01b6110af565b81805480610cd557610cd4611e57565b5b60019003818190600052602060002001600090559055610cff67d528f44f36dbeead60c01b6110af565b610d25565b610d1867351932ae2b229a4960c01b6110af565b8080600101915050610bcd565b50610d3a672949074be6025e3160c01b6110af565b610d4e672286878d5afa928060c01b6110af565b7f89af6ba62ab348dc535a3187c267090f834c868a3820cd552a7110c3dc3eedb883604051610d7d9190611d01565b60405180910390a1505050565b6060610da0678f049d83dc6f756c60c01b6110af565b610db467e6fc6ac0b3372b5b60c01b6110af565b610dc86760eeff6013e1694760c01b6110af565b610ddc678d703f9669c49bc660c01b6110af565b610de5826110b2565b610e24576040517f08c379a0000000000000000000000000000000000000000000000000000000008152600401610e1b90611dd4565b60405180910390fd5b610e3867b66a37ba63d6d35c60c01b6110af565b610e4c670d45159f957680dc60c01b6110af565b610e606799cd9114f9037c8e60c01b6110af565b60008060008481526020019081526020016000209050610e8a67a48b3829f534814a60c01b6110af565b610e9e67f8a3434b8f2d325760c01b6110af565b610eb2671a2179f9a098f1eb60c01b6110af565b8060010160149054906101000a900460ff168015610ee05750610edf67d6db237a228cee9260c01b61115d565b5b80610f7257503373ffffffffffffffffffffffffffffffffffffffff168160010160009054906101000a900473ffffffffffffffffffffffffffffffffffffffff1673ffffffffffffffffffffffffffffffffffffffff16148015610f555750610f5467c51eadd478587a0c60c01b61115d565b5b8015610f715750610f7067b8bcbd9b6c51aa9a60c01b61115d565b5b5b80610f9f5750610f828333611168565b8015610f9e5750610f9d674ba65043e3fc724060c01b61115d565b5b5b610fde576040517f08c379a0000000000000000000000000000000000000000000000000000000008152600401610fd590611ef8565b60405180910390fd5b610ff2678caf22a1373f388060c01b6110af565b61100667dcf215af85a3eba860c01b6110af565b61101a67a940d35937bf97f460c01b6110af565b80600001805461102990611a43565b80601f016020809104026020016040519081016040528092919081815260200182805461105590611a43565b80156110a25780601f10611077576101008083540402835291602001916110a2565b820191906000526020600020905b81548152906001019060200180831161108557829003601f168201915b5050505050915050919050565b50565b60006110c8672c7d74c73880a14360c01b6110af565b6110dc6724a8e9f6180c57a060c01b6110af565b6110f067cc902c3ca910637160c01b6110af565b600073ffffffffffffffffffffffffffffffffffffffff1660008084815260200190815260200160002060010160009054906101000a900473ffffffffffffffffffffffffffffffffffffffff1673ffffffffffffffffffffffffffffffffffffffff1614159050919050565b600060019050919050565b600061117e6772325d958857387360c01b6110af565b61119267d30c73093b3d206160c01b6110af565b6111a6679dcdacf42cba05ab60c01b6110af565b600080600085815260200190815260200160002090506111d0673df67af34b6c134760c01b6110af565b6111e46704f3822a84138f3460c01b6110af565b60005b81600201805490508110156112f95761120a67bdbb787063df2f0660c01b6110af565b61121e67a9fcf96a7282f2b160c01b6110af565b8373ffffffffffffffffffffffffffffffffffffffff1682600201828154811061124b5761124a611df4565b5b9060005260206000200160009054906101000a900473ffffffffffffffffffffffffffffffffffffffff1673ffffffffffffffffffffffffffffffffffffffff16036112d8576112a567772b5b352d34b80560c01b6110af565b6112b967f19e94601feec30660c01b6110af565b6112cd679257ac461a18ec8360c01b6110af565b600192505050611328565b6112ec67f91931cb154a9eda60c01b6110af565b80806001019150506111e7565b5061130e6779b196f31e6d69a060c01b6110af565b6113226735b648f3d042887860c01b6110af565b60009150505b92915050565b8280548282559060005260206000209081019282156113a7579160200282015b828111156113a65782518260006101000a81548173ffffffffffffffffffffffffffffffffffffffff021916908373ffffffffffffffffffffffffffffffffffffffff1602179055509160200191906001019061134e565b5b5090506113b49190611419565b5090565b50805460008255906000526020600020908101906113d69190611419565b50565b5080546113e590611a43565b6000825580601f106113f75750611416565b601f0160209004906000526020600020908101906114159190611419565b5b50565b5b8082111561143257600081600090555060010161141a565b5090565b6000604051905090565b600080fd5b600080fd5b600080fd5b600080fd5b6000601f19601f8301169050919050565b7f4e487b7100000000000000000000000000000000000000000000000000000000600052604160045260246000fd5b61149d82611454565b810181811067ffffffffffffffff821117156114bc576114bb611465565b5b80604052505050565b60006114cf611436565b90506114db8282611494565b919050565b600067ffffffffffffffff8211156114fb576114fa611465565b5b61150482611454565b9050602081019050919050565b82818337600083830152505050565b600061153361152e846114e0565b6114c5565b90508281526020810184848401111561154f5761154e61144f565b5b61155a848285611511565b509392505050565b600082601f8301126115775761157661144a565b5b8135611587848260208601611520565b91505092915050565b60008115159050919050565b6115a581611590565b81146115b057600080fd5b50565b6000813590506115c28161159c565b92915050565b600080604083850312156115df576115de611440565b5b600083013567ffffffffffffffff8111156115fd576115fc611445565b5b61160985828601611562565b925050602061161a858286016115b3565b9150509250929050565b6000819050919050565b61163781611624565b811461164257600080fd5b50565b6000813590506116548161162e565b92915050565b600067ffffffffffffffff82111561167557611674611465565b5b602082029050602081019050919050565b600080fd5b600073ffffffffffffffffffffffffffffffffffffffff82169050919050565b60006116b68261168b565b9050919050565b6116c6816116ab565b81146116d157600080fd5b50565b6000813590506116e3816116bd565b92915050565b60006116fc6116f78461165a565b6114c5565b9050808382526020820190506020840283018581111561171f5761171e611686565b5b835b81811015611748578061173488826116d4565b845260208401935050602081019050611721565b5050509392505050565b600082601f8301126117675761176661144a565b5b81356117778482602086016116e9565b91505092915050565b60008060006060848603121561179957611798611440565b5b60006117a786828701611645565b93505060206117b8868287016115b3565b925050604084013567ffffffffffffffff8111156117d9576117d8611445565b5b6117e586828701611752565b9150509250925092565b600081519050919050565b600082825260208201905092915050565b6000819050602082019050919050565b61182481611624565b82525050565b6000611836838361181b565b60208301905092915050565b6000602082019050919050565b600061185a826117ef565b61186481856117fa565b935061186f8361180b565b8060005b838110156118a0578151611887888261182a565b975061189283611842565b925050600181019050611873565b5085935050505092915050565b600060208201905081810360008301526118c7818461184f565b905092915050565b6000602082840312156118e5576118e4611440565b5b60006118f384828501611645565b91505092915050565b600081519050919050565b600082825260208201905092915050565b60005b8381101561193657808201518184015260208101905061191b565b60008484015250505050565b600061194d826118fc565b6119578185611907565b9350611967818560208601611918565b61197081611454565b840191505092915050565b600060208201905081810360008301526119958184611942565b905092915050565b7f4e487b7100000000000000000000000000000000000000000000000000000000600052601160045260246000fd5b60006119d782611624565b91507fffffffffffffffffffffffffffffffffffffffffffffffffffffffffffffffff8203611a0957611a0861199d565b5b600182019050919050565b7f4e487b7100000000000000000000000000000000000000000000000000000000600052602260045260246000fd5b60006002820490506001821680611a5b57607f821691505b602082108103611a6e57611a6d611a14565b5b50919050565b60008190508160005260206000209050919050565b60006020601f8301049050919050565b600082821b905092915050565b600060088302611ad67fffffffffffffffffffffffffffffffffffffffffffffffffffffffffffffffff82611a99565b611ae08683611a99565b95508019841693508086168417925050509392505050565b6000819050919050565b6000611b1d611b18611b1384611624565b611af8565b611624565b9050919050565b6000819050919050565b611b3783611b02565b611b4b611b4382611b24565b848454611aa6565b825550505050565b600090565b611b60611b53565b611b6b818484611b2e565b505050565b5b81811015611b8f57611b84600082611b58565b600181019050611b71565b5050565b601f821115611bd457611ba581611a74565b611bae84611a89565b81016020851015611bbd578190505b611bd1611bc985611a89565b830182611b70565b50505b505050565b600082821c905092915050565b6000611bf760001984600802611bd9565b1980831691505092915050565b6000611c108383611be6565b9150826002028217905092915050565b611c29826118fc565b67ffffffffffffffff811115611c4257611c41611465565b5b611c4c8254611a43565b611c57828285611b93565b600060209050601f831160018114611c8a5760008415611c78578287015190505b611c828582611c04565b865550611cea565b601f198416611c9886611a74565b60005b82811015611cc057848901518255600182019150602085019450602081019050611c9b565b86831015611cdd5784890151611cd9601f891682611be6565b8355505b6001600288020188555050505b505050505050565b611cfb81611624565b82525050565b6000602082019050611d166000830184611cf2565b92915050565b7f4f6e6c7920746865206f776e65722063616e20646f2074686973000000000000600082015250565b6000611d52601a83611907565b9150611d5d82611d1c565b602082019050919050565b60006020820190508181036000830152611d8181611d45565b9050919050565b7f546865206e6f746520646f6573206e6f74206578697374000000000000000000600082015250565b6000611dbe601783611907565b9150611dc982611d88565b602082019050919050565b60006020820190508181036000830152611ded81611db1565b9050919050565b7f4e487b7100000000000000000000000000000000000000000000000000000000600052603260045260246000fd5b6000611e2e82611624565b9150611e3983611624565b9250828203905081811115611e5157611e5061199d565b5b92915050565b7f4e487b7100000000000000000000000000000000000000000000000000000000600052603160045260246000fd5b7f596f7520646f206e6f742068617665207065726d697373696f6e20746f20726560008201527f61642074686973206e6f74650000000000000000000000000000000000000000602082015250565b6000611ee2602c83611907565b9150611eed82611e86565b604082019050919050565b60006020820190508181036000830152611f1181611ed5565b905091905056fea2646970667358221220f590e850ffc7a8decf0f644dd87343ae05fcbfefeee6d760a69f7bb40151802364736f6c63430008180033","opcodes":"PUSH1 0x80 PUSH1 0x40 MSTORE CALLVALUE DUP1 ISZERO PUSH2 0x10 JUMPI PUSH1 0x0 DUP1 REVERT JUMPDEST POP PUSH2 0x2B PUSH8 0x58F6DC878846AD3E PUSH1 0xC0 SHL PUSH2 0x52 PUSH1 0x20 SHL PUSH1 0x20 SHR JUMP JUMPDEST PUSH2 0x45 PUSH8 0x62BE61C3CC7BDC2D PUSH1 0xC0 SHL PUSH2 0x52 PUSH1 0x20 SHL PUSH1 0x20 SHR JUMP JUMPDEST PUSH1 0x0 PUSH1 0x2 DUP2 SWAP1 SSTORE POP PUSH2 0x55 JUMP JUMPDEST POP JUMP JUMPDEST PUSH2 0x1F4E DUP1 PUSH2 0x64 PUSH1 0x0 CODECOPY PUSH1 0x0 RETURN INVALID PUSH1 0x80 PUSH1 0x40 MSTORE CALLVALUE DUP1 ISZERO PUSH2 0x10 JUMPI PUSH1 0x0 DUP1 REVERT JUMPDEST POP PUSH1 0x4 CALLDATASIZE LT PUSH2 0x57 JUMPI PUSH1 0x0 CALLDATALOAD PUSH1 0xE0 SHR DUP1 PUSH4 0x1B08E915 EQ PUSH2 0x5C JUMPI DUP1 PUSH4 0x27AF0F18 EQ PUSH2 0x78 JUMPI DUP1 PUSH4 0xB4C780A3 EQ PUSH2 0x94 JUMPI DUP1 PUSH4 0xC47177F4 EQ PUSH2 0xB2 JUMPI DUP1 PUSH4 0xD311651A EQ PUSH2 0xCE JUMPI JUMPDEST PUSH1 0x0 DUP1 REVERT JUMPDEST PUSH2 0x76 PUSH1 0x4 DUP1 CALLDATASIZE SUB DUP2 ADD SWAP1 PUSH2 0x71 SWAP2 SWAP1 PUSH2 0x15C8 JUMP JUMPDEST PUSH2 0xFE JUMP JUMPDEST STOP JUMPDEST PUSH2 0x92 PUSH1 0x4 DUP1 CALLDATASIZE SUB DUP2 ADD SWAP1 PUSH2 0x8D SWAP2 SWAP1 PUSH2 0x1780 JUMP JUMPDEST PUSH2 0x391 JUMP JUMPDEST STOP JUMPDEST PUSH2 0x9C PUSH2 0x7F2 JUMP JUMPDEST PUSH1 0x40 MLOAD PUSH2 0xA9 SWAP2 SWAP1 PUSH2 0x18AD JUMP JUMPDEST PUSH1 0x40 MLOAD DUP1 SWAP2 SUB SWAP1 RETURN JUMPDEST PUSH2 0xCC PUSH1 0x4 DUP1 CALLDATASIZE SUB DUP2 ADD SWAP1 PUSH2 0xC7 SWAP2 SWAP1 PUSH2 0x18CF JUMP JUMPDEST PUSH2 0x8C3 JUMP JUMPDEST STOP JUMPDEST PUSH2 0xE8 PUSH1 0x4 DUP1 CALLDATASIZE SUB DUP2 ADD SWAP1 PUSH2 0xE3 SWAP2 SWAP1 PUSH2 0x18CF JUMP JUMPDEST PUSH2 0xD8A JUMP JUMPDEST PUSH1 0x40 MLOAD PUSH2 0xF5 SWAP2 SWAP1 PUSH2 0x197B JUMP JUMPDEST PUSH1 0x40 MLOAD DUP1 SWAP2 SUB SWAP1 RETURN JUMPDEST PUSH2 0x112 PUSH8 0x9918B23C629A0B85 PUSH1 0xC0 SHL PUSH2 0x10AF JUMP JUMPDEST PUSH2 0x126 PUSH8 0x62B17C42782219DB PUSH1 0xC0 SHL PUSH2 0x10AF JUMP JUMPDEST PUSH1 0x2 PUSH1 0x0 DUP2 SLOAD DUP1 SWAP3 SWAP2 SWAP1 PUSH2 0x139 SWAP1 PUSH2 0x19CC JUMP JUMPDEST SWAP2 SWAP1 POP SSTORE POP PUSH2 0x152 PUSH8 0xFD989D58A9DB5980 PUSH1 0xC0 SHL PUSH2 0x10AF JUMP JUMPDEST PUSH1 0x40 MLOAD DUP1 PUSH1 0x80 ADD PUSH1 0x40 MSTORE DUP1 DUP4 DUP2 MSTORE PUSH1 0x20 ADD CALLER PUSH20 0xFFFFFFFFFFFFFFFFFFFFFFFFFFFFFFFFFFFFFFFF AND DUP2 MSTORE PUSH1 0x20 ADD DUP3 ISZERO ISZERO DUP2 MSTORE PUSH1 0x20 ADD PUSH1 0x0 PUSH8 0xFFFFFFFFFFFFFFFF DUP2 GT ISZERO PUSH2 0x1A2 JUMPI PUSH2 0x1A1 PUSH2 0x1465 JUMP JUMPDEST JUMPDEST PUSH1 0x40 MLOAD SWAP1 DUP1 DUP3 MSTORE DUP1 PUSH1 0x20 MUL PUSH1 0x20 ADD DUP3 ADD PUSH1 0x40 MSTORE DUP1 ISZERO PUSH2 0x1D0 JUMPI DUP2 PUSH1 0x20 ADD PUSH1 0x20 DUP3 MUL DUP1 CALLDATASIZE DUP4 CALLDATACOPY DUP1 DUP3 ADD SWAP2 POP POP SWAP1 POP JUMPDEST POP DUP2 MSTORE POP PUSH1 0x0 DUP1 PUSH1 0x2 SLOAD DUP2 MSTORE PUSH1 0x20 ADD SWAP1 DUP2 MSTORE PUSH1 0x20 ADD PUSH1 0x0 KECCAK256 PUSH1 0x0 DUP3 ADD MLOAD DUP2 PUSH1 0x0 ADD SWAP1 DUP2 PUSH2 0x1FD SWAP2 SWAP1 PUSH2 0x1C20 JUMP JUMPDEST POP PUSH1 0x20 DUP3 ADD MLOAD DUP2 PUSH1 0x1 ADD PUSH1 0x0 PUSH2 0x100 EXP DUP2 SLOAD DUP2 PUSH20 0xFFFFFFFFFFFFFFFFFFFFFFFFFFFFFFFFFFFFFFFF MUL NOT AND SWAP1 DUP4 PUSH20 0xFFFFFFFFFFFFFFFFFFFFFFFFFFFFFFFFFFFFFFFF AND MUL OR SWAP1 SSTORE POP PUSH1 0x40 DUP3 ADD MLOAD DUP2 PUSH1 0x1 ADD PUSH1 0x14 PUSH2 0x100 EXP DUP2 SLOAD DUP2 PUSH1 0xFF MUL NOT AND SWAP1 DUP4 ISZERO ISZERO MUL OR SWAP1 SSTORE POP PUSH1 0x60 DUP3 ADD MLOAD DUP2 PUSH1 0x2 ADD SWAP1 DUP1 MLOAD SWAP1 PUSH1 0x20 ADD SWAP1 PUSH2 0x281 SWAP3 SWAP2 SWAP1 PUSH2 0x132E JUMP JUMPDEST POP SWAP1 POP POP PUSH2 0x299 PUSH8 0x28701339B34985DF PUSH1 0xC0 SHL PUSH2 0x10AF JUMP JUMPDEST PUSH2 0x2AD PUSH8 0xAEFC961219CB7051 PUSH1 0xC0 SHL PUSH2 0x10AF JUMP JUMPDEST PUSH1 0x1 PUSH1 0x0 CALLER PUSH20 0xFFFFFFFFFFFFFFFFFFFFFFFFFFFFFFFFFFFFFFFF AND PUSH20 0xFFFFFFFFFFFFFFFFFFFFFFFFFFFFFFFFFFFFFFFF AND DUP2 MSTORE PUSH1 0x20 ADD SWAP1 DUP2 MSTORE PUSH1 0x20 ADD PUSH1 0x0 KECCAK256 PUSH1 0x2 SLOAD SWAP1 DUP1 PUSH1 0x1 DUP2 SLOAD ADD DUP1 DUP3 SSTORE DUP1 SWAP2 POP POP PUSH1 0x1 SWAP1 SUB SWAP1 PUSH1 0x0 MSTORE PUSH1 0x20 PUSH1 0x0 KECCAK256 ADD PUSH1 0x0 SWAP1 SWAP2 SWAP1 SWAP2 SWAP1 SWAP2 POP SSTORE PUSH2 0x329 PUSH8 0x8D27E64FDCB4CC22 PUSH1 0xC0 SHL PUSH2 0x10AF JUMP JUMPDEST PUSH2 0x33D PUSH8 0x46595551D3FF7F95 PUSH1 0xC0 SHL PUSH2 0x10AF JUMP JUMPDEST CALLER PUSH20 0xFFFFFFFFFFFFFFFFFFFFFFFFFFFFFFFFFFFFFFFF AND PUSH32 0x1D39A71A40C14BEE233655B3E373B6DFE3D42C9CF199FB03578B4AEE93D5CBC1 PUSH1 0x2 SLOAD PUSH1 0x40 MLOAD PUSH2 0x385 SWAP2 SWAP1 PUSH2 0x1D01 JUMP JUMPDEST PUSH1 0x40 MLOAD DUP1 SWAP2 SUB SWAP1 LOG2 POP POP JUMP JUMPDEST PUSH2 0x3A5 PUSH8 0x94EA07CBE97FED8C PUSH1 0xC0 SHL PUSH2 0x10AF JUMP JUMPDEST DUP3 PUSH2 0x3BA PUSH8 0x25F20A72775AAFDD PUSH1 0xC0 SHL PUSH2 0x10AF JUMP JUMPDEST PUSH2 0x3CE PUSH8 0xC0ED9E81ED1C2B34 PUSH1 0xC0 SHL PUSH2 0x10AF JUMP JUMPDEST PUSH2 0x3E2 PUSH8 0x84B851EDEF8919AA PUSH1 0xC0 SHL PUSH2 0x10AF JUMP JUMPDEST PUSH2 0x3F6 PUSH8 0xC37D9615AB84519 PUSH1 0xC0 SHL PUSH2 0x10AF JUMP JUMPDEST CALLER PUSH20 0xFFFFFFFFFFFFFFFFFFFFFFFFFFFFFFFFFFFFFFFF AND PUSH1 0x0 DUP1 DUP4 DUP2 MSTORE PUSH1 0x20 ADD SWAP1 DUP2 MSTORE PUSH1 0x20 ADD PUSH1 0x0 KECCAK256 PUSH1 0x1 ADD PUSH1 0x0 SWAP1 SLOAD SWAP1 PUSH2 0x100 EXP SWAP1 DIV PUSH20 0xFFFFFFFFFFFFFFFFFFFFFFFFFFFFFFFFFFFFFFFF AND PUSH20 0xFFFFFFFFFFFFFFFFFFFFFFFFFFFFFFFFFFFFFFFF AND EQ PUSH2 0x499 JUMPI PUSH1 0x40 MLOAD PUSH32 0x8C379A000000000000000000000000000000000000000000000000000000000 DUP2 MSTORE PUSH1 0x4 ADD PUSH2 0x490 SWAP1 PUSH2 0x1D68 JUMP JUMPDEST PUSH1 0x40 MLOAD DUP1 SWAP2 SUB SWAP1 REVERT JUMPDEST PUSH2 0x4AD PUSH8 0x3C410438BFCE59D2 PUSH1 0xC0 SHL PUSH2 0x10AF JUMP JUMPDEST PUSH2 0x4C1 PUSH8 0xD6370D586EF48FEE PUSH1 0xC0 SHL PUSH2 0x10AF JUMP JUMPDEST PUSH2 0x4D5 PUSH8 0xE2A8E2876F0B914D PUSH1 0xC0 SHL PUSH2 0x10AF JUMP JUMPDEST PUSH2 0x4E9 PUSH8 0x527781B6DF8B77F6 PUSH1 0xC0 SHL PUSH2 0x10AF JUMP JUMPDEST PUSH2 0x4FD PUSH8 0xB753F0F1586E4045 PUSH1 0xC0 SHL PUSH2 0x10AF JUMP JUMPDEST PUSH2 0x511 PUSH8 0x82BDBF6D41E48794 PUSH1 0xC0 SHL PUSH2 0x10AF JUMP JUMPDEST PUSH2 0x525 PUSH8 0xF89F9380A3FA76F5 PUSH1 0xC0 SHL PUSH2 0x10AF JUMP JUMPDEST PUSH2 0x52E DUP5 PUSH2 0x10B2 JUMP JUMPDEST PUSH2 0x56D JUMPI PUSH1 0x40 MLOAD PUSH32 0x8C379A000000000000000000000000000000000000000000000000000000000 DUP2 MSTORE PUSH1 0x4 ADD PUSH2 0x564 SWAP1 PUSH2 0x1DD4 JUMP JUMPDEST PUSH1 0x40 MLOAD DUP1 SWAP2 SUB SWAP1 REVERT JUMPDEST PUSH2 0x581 PUSH8 0x20EE158508E6D3FE PUSH1 0xC0 SHL PUSH2 0x10AF JUMP JUMPDEST PUSH2 0x595 PUSH8 0xC8FF8975161AF400 PUSH1 0xC0 SHL PUSH2 0x10AF JUMP JUMPDEST PUSH2 0x5A9 PUSH8 0x7A04AC671D78F7DD PUSH1 0xC0 SHL PUSH2 0x10AF JUMP JUMPDEST PUSH1 0x0 DUP1 PUSH1 0x0 DUP7 DUP2 MSTORE PUSH1 0x20 ADD SWAP1 DUP2 MSTORE PUSH1 0x20 ADD PUSH1 0x0 KECCAK256 SWAP1 POP PUSH2 0x5D3 PUSH8 0x16E7142436F1852C PUSH1 0xC0 SHL PUSH2 0x10AF JUMP JUMPDEST DUP4 DUP2 PUSH1 0x1 ADD PUSH1 0x14 PUSH2 0x100 EXP DUP2 SLOAD DUP2 PUSH1 0xFF MUL NOT AND SWAP1 DUP4 ISZERO ISZERO MUL OR SWAP1 SSTORE POP PUSH2 0x603 PUSH8 0x42C388CE854429C4 PUSH1 0xC0 SHL PUSH2 0x10AF JUMP JUMPDEST DUP1 PUSH1 0x2 ADD PUSH1 0x0 PUSH2 0x613 SWAP2 SWAP1 PUSH2 0x13B8 JUMP JUMPDEST PUSH2 0x627 PUSH8 0x89111925D81C2969 PUSH1 0xC0 SHL PUSH2 0x10AF JUMP JUMPDEST PUSH2 0x63B PUSH8 0xAE6F9C7140273849 PUSH1 0xC0 SHL PUSH2 0x10AF JUMP JUMPDEST PUSH1 0x0 JUMPDEST DUP4 MLOAD DUP2 LT ISZERO PUSH2 0x78B JUMPI PUSH2 0x65B PUSH8 0x39A932D1F6220C4A PUSH1 0xC0 SHL PUSH2 0x10AF JUMP JUMPDEST PUSH2 0x66F PUSH8 0x5DB01D977858A2B7 PUSH1 0xC0 SHL PUSH2 0x10AF JUMP JUMPDEST DUP2 PUSH1 0x2 ADD DUP5 DUP3 DUP2 MLOAD DUP2 LT PUSH2 0x686 JUMPI PUSH2 0x685 PUSH2 0x1DF4 JUMP JUMPDEST JUMPDEST PUSH1 0x20 MUL PUSH1 0x20 ADD ADD MLOAD SWAP1 DUP1 PUSH1 0x1 DUP2 SLOAD ADD DUP1 DUP3 SSTORE DUP1 SWAP2 POP POP PUSH1 0x1 SWAP1 SUB SWAP1 PUSH1 0x0 MSTORE PUSH1 0x20 PUSH1 0x0 KECCAK256 ADD PUSH1 0x0 SWAP1 SWAP2 SWAP1 SWAP2 SWAP1 SWAP2 PUSH2 0x100 EXP DUP2 SLOAD DUP2 PUSH20 0xFFFFFFFFFFFFFFFFFFFFFFFFFFFFFFFFFFFFFFFF MUL NOT AND SWAP1 DUP4 PUSH20 0xFFFFFFFFFFFFFFFFFFFFFFFFFFFFFFFFFFFFFFFF AND MUL OR SWAP1 SSTORE POP PUSH2 0x702 PUSH8 0x8A33048A87599E83 PUSH1 0xC0 SHL PUSH2 0x10AF JUMP JUMPDEST PUSH2 0x716 PUSH8 0x64F6ADEC0A412749 PUSH1 0xC0 SHL PUSH2 0x10AF JUMP JUMPDEST DUP4 DUP2 DUP2 MLOAD DUP2 LT PUSH2 0x729 JUMPI PUSH2 0x728 PUSH2 0x1DF4 JUMP JUMPDEST JUMPDEST PUSH1 0x20 MUL PUSH1 0x20 ADD ADD MLOAD PUSH20 0xFFFFFFFFFFFFFFFFFFFFFFFFFFFFFFFFFFFFFFFF AND PUSH32 0x387C627C94976E65D3D776F3DC1AC3543AC1CF3E5CBDA5DD02465D430D57D538 DUP8 PUSH1 0x40 MLOAD PUSH2 0x776 SWAP2 SWAP1 PUSH2 0x1D01 JUMP JUMPDEST PUSH1 0x40 MLOAD DUP1 SWAP2 SUB SWAP1 LOG2 DUP1 DUP1 PUSH1 0x1 ADD SWAP2 POP POP PUSH2 0x63E JUMP JUMPDEST POP PUSH2 0x7A0 PUSH8 0xBE5D848378355755 PUSH1 0xC0 SHL PUSH2 0x10AF JUMP JUMPDEST PUSH2 0x7B4 PUSH8 0x13A9A61336A4C7D6 PUSH1 0xC0 SHL PUSH2 0x10AF JUMP JUMPDEST PUSH32 0x607D768CCFA87285A4D88FAFC2A82975061F85E66160001D6B44E966718A88DD DUP6 PUSH1 0x40 MLOAD PUSH2 0x7E3 SWAP2 SWAP1 PUSH2 0x1D01 JUMP JUMPDEST PUSH1 0x40 MLOAD DUP1 SWAP2 SUB SWAP1 LOG1 POP POP POP POP POP JUMP JUMPDEST PUSH1 0x60 PUSH2 0x808 PUSH8 0xAD73BCE91B36B671 PUSH1 0xC0 SHL PUSH2 0x10AF JUMP JUMPDEST PUSH2 0x81C PUSH8 0x54DC0DC82C4A7876 PUSH1 0xC0 SHL PUSH2 0x10AF JUMP JUMPDEST PUSH2 0x830 PUSH8 0xA4FE85DA6C38AAA9 PUSH1 0xC0 SHL PUSH2 0x10AF JUMP JUMPDEST PUSH1 0x1 PUSH1 0x0 CALLER PUSH20 0xFFFFFFFFFFFFFFFFFFFFFFFFFFFFFFFFFFFFFFFF AND PUSH20 0xFFFFFFFFFFFFFFFFFFFFFFFFFFFFFFFFFFFFFFFF AND DUP2 MSTORE PUSH1 0x20 ADD SWAP1 DUP2 MSTORE PUSH1 0x20 ADD PUSH1 0x0 KECCAK256 DUP1 SLOAD DUP1 PUSH1 0x20 MUL PUSH1 0x20 ADD PUSH1 0x40 MLOAD SWAP1 DUP2 ADD PUSH1 0x40 MSTORE DUP1 SWAP3 SWAP2 SWAP1 DUP2 DUP2 MSTORE PUSH1 0x20 ADD DUP3 DUP1 SLOAD DUP1 ISZERO PUSH2 0x8B9 JUMPI PUSH1 0x20 MUL DUP3 ADD SWAP2 SWAP1 PUSH1 0x0 MSTORE PUSH1 0x20 PUSH1 0x0 KECCAK256 SWAP1 JUMPDEST DUP2 SLOAD DUP2 MSTORE PUSH1 0x20 ADD SWAP1 PUSH1 0x1 ADD SWAP1 DUP1 DUP4 GT PUSH2 0x8A5 JUMPI JUMPDEST POP POP POP POP POP SWAP1 POP SWAP1 JUMP JUMPDEST PUSH2 0x8D7 PUSH8 0x2D3E4134A75E22FF PUSH1 0xC0 SHL PUSH2 0x10AF JUMP JUMPDEST DUP1 PUSH2 0x8EC PUSH8 0x25F20A72775AAFDD PUSH1 0xC0 SHL PUSH2 0x10AF JUMP JUMPDEST PUSH2 0x900 PUSH8 0xC0ED9E81ED1C2B34 PUSH1 0xC0 SHL PUSH2 0x10AF JUMP JUMPDEST PUSH2 0x914 PUSH8 0x84B851EDEF8919AA PUSH1 0xC0 SHL PUSH2 0x10AF JUMP JUMPDEST PUSH2 0x928 PUSH8 0xC37D9615AB84519 PUSH1 0xC0 SHL PUSH2 0x10AF JUMP JUMPDEST CALLER PUSH20 0xFFFFFFFFFFFFFFFFFFFFFFFFFFFFFFFFFFFFFFFF AND PUSH1 0x0 DUP1 DUP4 DUP2 MSTORE PUSH1 0x20 ADD SWAP1 DUP2 MSTORE PUSH1 0x20 ADD PUSH1 0x0 KECCAK256 PUSH1 0x1 ADD PUSH1 0x0 SWAP1 SLOAD SWAP1 PUSH2 0x100 EXP SWAP1 DIV PUSH20 0xFFFFFFFFFFFFFFFFFFFFFFFFFFFFFFFFFFFFFFFF AND PUSH20 0xFFFFFFFFFFFFFFFFFFFFFFFFFFFFFFFFFFFFFFFF AND EQ PUSH2 0x9CB JUMPI PUSH1 0x40 MLOAD PUSH32 0x8C379A000000000000000000000000000000000000000000000000000000000 DUP2 MSTORE PUSH1 0x4 ADD PUSH2 0x9C2 SWAP1 PUSH2 0x1D68 JUMP JUMPDEST PUSH1 0x40 MLOAD DUP1 SWAP2 SUB SWAP1 REVERT JUMPDEST PUSH2 0x9DF PUSH8 0x3C410438BFCE59D2 PUSH1 0xC0 SHL PUSH2 0x10AF JUMP JUMPDEST PUSH2 0x9F3 PUSH8 0xD6370D586EF48FEE PUSH1 0xC0 SHL PUSH2 0x10AF JUMP JUMPDEST PUSH2 0xA07 PUSH8 0xEE06E6EB8959747D PUSH1 0xC0 SHL PUSH2 0x10AF JUMP JUMPDEST PUSH2 0xA1B PUSH8 0x6369CBD9D3F9ED13 PUSH1 0xC0 SHL PUSH2 0x10AF JUMP JUMPDEST PUSH2 0xA2F PUSH8 0xB71C79038A0C42C7 PUSH1 0xC0 SHL PUSH2 0x10AF JUMP JUMPDEST PUSH2 0xA43 PUSH8 0x3497B09E5584481C PUSH1 0xC0 SHL PUSH2 0x10AF JUMP JUMPDEST PUSH2 0xA57 PUSH8 0x6495C5A3D2402522 PUSH1 0xC0 SHL PUSH2 0x10AF JUMP JUMPDEST PUSH2 0xA60 DUP3 PUSH2 0x10B2 JUMP JUMPDEST PUSH2 0xA9F JUMPI PUSH1 0x40 MLOAD PUSH32 0x8C379A000000000000000000000000000000000000000000000000000000000 DUP2 MSTORE PUSH1 0x4 ADD PUSH2 0xA96 SWAP1 PUSH2 0x1DD4 JUMP JUMPDEST PUSH1 0x40 MLOAD DUP1 SWAP2 SUB SWAP1 REVERT JUMPDEST PUSH2 0xAB3 PUSH8 0x647F4421EB7BB370 PUSH1 0xC0 SHL PUSH2 0x10AF JUMP JUMPDEST PUSH2 0xAC7 PUSH8 0x236A4F24CC1B8F46 PUSH1 0xC0 SHL PUSH2 0x10AF JUMP JUMPDEST PUSH1 0x0 DUP1 DUP4 DUP2 MSTORE PUSH1 0x20 ADD SWAP1 DUP2 MSTORE PUSH1 0x20 ADD PUSH1 0x0 KECCAK256 PUSH1 0x0 DUP1 DUP3 ADD PUSH1 0x0 PUSH2 0xAEA SWAP2 SWAP1 PUSH2 0x13D9 JUMP JUMPDEST PUSH1 0x1 DUP3 ADD PUSH1 0x0 PUSH2 0x100 EXP DUP2 SLOAD SWAP1 PUSH20 0xFFFFFFFFFFFFFFFFFFFFFFFFFFFFFFFFFFFFFFFF MUL NOT AND SWAP1 SSTORE PUSH1 0x1 DUP3 ADD PUSH1 0x14 PUSH2 0x100 EXP DUP2 SLOAD SWAP1 PUSH1 0xFF MUL NOT AND SWAP1 SSTORE PUSH1 0x2 DUP3 ADD PUSH1 0x0 PUSH2 0xB35 SWAP2 SWAP1 PUSH2 0x13B8 JUMP JUMPDEST POP POP PUSH2 0xB4B PUSH8 0x5EDD238F171C1A9A PUSH1 0xC0 SHL PUSH2 0x10AF JUMP JUMPDEST PUSH2 0xB5F PUSH8 0xAC7B28E32A1F29BD PUSH1 0xC0 SHL PUSH2 0x10AF JUMP JUMPDEST PUSH1 0x0 PUSH1 0x1 PUSH1 0x0 CALLER PUSH20 0xFFFFFFFFFFFFFFFFFFFFFFFFFFFFFFFFFFFFFFFF AND PUSH20 0xFFFFFFFFFFFFFFFFFFFFFFFFFFFFFFFFFFFFFFFF AND DUP2 MSTORE PUSH1 0x20 ADD SWAP1 DUP2 MSTORE PUSH1 0x20 ADD PUSH1 0x0 KECCAK256 SWAP1 POP PUSH2 0xBB6 PUSH8 0xC4061FE8953B631E PUSH1 0xC0 SHL PUSH2 0x10AF JUMP JUMPDEST PUSH2 0xBCA PUSH8 0x8E613C25D350A4A8 PUSH1 0xC0 SHL PUSH2 0x10AF JUMP JUMPDEST PUSH1 0x0 JUMPDEST DUP2 DUP1 SLOAD SWAP1 POP DUP2 LT ISZERO PUSH2 0xD25 JUMPI PUSH2 0xBED PUSH8 0xEF022CCCDC2D6C5 PUSH1 0xC0 SHL PUSH2 0x10AF JUMP JUMPDEST PUSH2 0xC01 PUSH8 0x2A8F522E05B01000 PUSH1 0xC0 SHL PUSH2 0x10AF JUMP JUMPDEST DUP4 DUP3 DUP3 DUP2 SLOAD DUP2 LT PUSH2 0xC15 JUMPI PUSH2 0xC14 PUSH2 0x1DF4 JUMP JUMPDEST JUMPDEST SWAP1 PUSH1 0x0 MSTORE PUSH1 0x20 PUSH1 0x0 KECCAK256 ADD SLOAD SUB PUSH2 0xD04 JUMPI PUSH2 0xC39 PUSH8 0x19A1F4D2662B7331 PUSH1 0xC0 SHL PUSH2 0x10AF JUMP JUMPDEST PUSH2 0xC4D PUSH8 0xD22EEB9A63CC4983 PUSH1 0xC0 SHL PUSH2 0x10AF JUMP JUMPDEST DUP2 PUSH1 0x1 DUP4 DUP1 SLOAD SWAP1 POP PUSH2 0xC5F SWAP2 SWAP1 PUSH2 0x1E23 JUMP JUMPDEST DUP2 SLOAD DUP2 LT PUSH2 0xC70 JUMPI PUSH2 0xC6F PUSH2 0x1DF4 JUMP JUMPDEST JUMPDEST SWAP1 PUSH1 0x0 MSTORE PUSH1 0x20 PUSH1 0x0 KECCAK256 ADD SLOAD DUP3 DUP3 DUP2 SLOAD DUP2 LT PUSH2 0xC8E JUMPI PUSH2 0xC8D PUSH2 0x1DF4 JUMP JUMPDEST JUMPDEST SWAP1 PUSH1 0x0 MSTORE PUSH1 0x20 PUSH1 0x0 KECCAK256 ADD DUP2 SWAP1 SSTORE POP PUSH2 0xCB0 PUSH8 0x35276D125E9D558 PUSH1 0xC0 SHL PUSH2 0x10AF JUMP JUMPDEST PUSH2 0xCC4 PUSH8 0x8E6E44F5E7199A02 PUSH1 0xC0 SHL PUSH2 0x10AF JUMP JUMPDEST DUP2 DUP1 SLOAD DUP1 PUSH2 0xCD5 JUMPI PUSH2 0xCD4 PUSH2 0x1E57 JUMP JUMPDEST JUMPDEST PUSH1 0x1 SWAP1 SUB DUP2 DUP2 SWAP1 PUSH1 0x0 MSTORE PUSH1 0x20 PUSH1 0x0 KECCAK256 ADD PUSH1 0x0 SWAP1 SSTORE SWAP1 SSTORE PUSH2 0xCFF PUSH8 0xD528F44F36DBEEAD PUSH1 0xC0 SHL PUSH2 0x10AF JUMP JUMPDEST PUSH2 0xD25 JUMP JUMPDEST PUSH2 0xD18 PUSH8 0x351932AE2B229A49 PUSH1 0xC0 SHL PUSH2 0x10AF JUMP JUMPDEST DUP1 DUP1 PUSH1 0x1 ADD SWAP2 POP POP PUSH2 0xBCD JUMP JUMPDEST POP PUSH2 0xD3A PUSH8 0x2949074BE6025E31 PUSH1 0xC0 SHL PUSH2 0x10AF JUMP JUMPDEST PUSH2 0xD4E PUSH8 0x2286878D5AFA9280 PUSH1 0xC0 SHL PUSH2 0x10AF JUMP JUMPDEST PUSH32 0x89AF6BA62AB348DC535A3187C267090F834C868A3820CD552A7110C3DC3EEDB8 DUP4 PUSH1 0x40 MLOAD PUSH2 0xD7D SWAP2 SWAP1 PUSH2 0x1D01 JUMP JUMPDEST PUSH1 0x40 MLOAD DUP1 SWAP2 SUB SWAP1 LOG1 POP POP POP JUMP JUMPDEST PUSH1 0x60 PUSH2 0xDA0 PUSH8 0x8F049D83DC6F756C PUSH1 0xC0 SHL PUSH2 0x10AF JUMP JUMPDEST PUSH2 0xDB4 PUSH8 0xE6FC6AC0B3372B5B PUSH1 0xC0 SHL PUSH2 0x10AF JUMP JUMPDEST PUSH2 0xDC8 PUSH8 0x60EEFF6013E16947 PUSH1 0xC0 SHL PUSH2 0x10AF JUMP JUMPDEST PUSH2 0xDDC PUSH8 0x8D703F9669C49BC6 PUSH1 0xC0 SHL PUSH2 0x10AF JUMP JUMPDEST PUSH2 0xDE5 DUP3 PUSH2 0x10B2 JUMP JUMPDEST PUSH2 0xE24 JUMPI PUSH1 0x40 MLOAD PUSH32 0x8C379A000000000000000000000000000000000000000000000000000000000 DUP2 MSTORE PUSH1 0x4 ADD PUSH2 0xE1B SWAP1 PUSH2 0x1DD4 JUMP JUMPDEST PUSH1 0x40 MLOAD DUP1 SWAP2 SUB SWAP1 REVERT JUMPDEST PUSH2 0xE38 PUSH8 0xB66A37BA63D6D35C PUSH1 0xC0 SHL PUSH2 0x10AF JUMP JUMPDEST PUSH2 0xE4C PUSH8 0xD45159F957680DC PUSH1 0xC0 SHL PUSH2 0x10AF JUMP JUMPDEST PUSH2 0xE60 PUSH8 0x99CD9114F9037C8E PUSH1 0xC0 SHL PUSH2 0x10AF JUMP JUMPDEST PUSH1 0x0 DUP1 PUSH1 0x0 DUP5 DUP2 MSTORE PUSH1 0x20 ADD SWAP1 DUP2 MSTORE PUSH1 0x20 ADD PUSH1 0x0 KECCAK256 SWAP1 POP PUSH2 0xE8A PUSH8 0xA48B3829F534814A PUSH1 0xC0 SHL PUSH2 0x10AF JUMP JUMPDEST PUSH2 0xE9E PUSH8 0xF8A3434B8F2D3257 PUSH1 0xC0 SHL PUSH2 0x10AF JUMP JUMPDEST PUSH2 0xEB2 PUSH8 0x1A2179F9A098F1EB PUSH1 0xC0 SHL PUSH2 0x10AF JUMP JUMPDEST DUP1 PUSH1 0x1 ADD PUSH1 0x14 SWAP1 SLOAD SWAP1 PUSH2 0x100 EXP SWAP1 DIV PUSH1 0xFF AND DUP1 ISZERO PUSH2 0xEE0 JUMPI POP PUSH2 0xEDF PUSH8 0xD6DB237A228CEE92 PUSH1 0xC0 SHL PUSH2 0x115D JUMP JUMPDEST JUMPDEST DUP1 PUSH2 0xF72 JUMPI POP CALLER PUSH20 0xFFFFFFFFFFFFFFFFFFFFFFFFFFFFFFFFFFFFFFFF AND DUP2 PUSH1 0x1 ADD PUSH1 0x0 SWAP1 SLOAD SWAP1 PUSH2 0x100 EXP SWAP1 DIV PUSH20 0xFFFFFFFFFFFFFFFFFFFFFFFFFFFFFFFFFFFFFFFF AND PUSH20 0xFFFFFFFFFFFFFFFFFFFFFFFFFFFFFFFFFFFFFFFF AND EQ DUP1 ISZERO PUSH2 0xF55 JUMPI POP PUSH2 0xF54 PUSH8 0xC51EADD478587A0C PUSH1 0xC0 SHL PUSH2 0x115D JUMP JUMPDEST JUMPDEST DUP1 ISZERO PUSH2 0xF71 JUMPI POP PUSH2 0xF70 PUSH8 0xB8BCBD9B6C51AA9A PUSH1 0xC0 SHL PUSH2 0x115D JUMP JUMPDEST JUMPDEST JUMPDEST DUP1 PUSH2 0xF9F JUMPI POP PUSH2 0xF82 DUP4 CALLER PUSH2 0x1168 JUMP JUMPDEST DUP1 ISZERO PUSH2 0xF9E JUMPI POP PUSH2 0xF9D PUSH8 0x4BA65043E3FC7240 PUSH1 0xC0 SHL PUSH2 0x115D JUMP JUMPDEST JUMPDEST JUMPDEST PUSH2 0xFDE JUMPI PUSH1 0x40 MLOAD PUSH32 0x8C379A000000000000000000000000000000000000000000000000000000000 DUP2 MSTORE PUSH1 0x4 ADD PUSH2 0xFD5 SWAP1 PUSH2 0x1EF8 JUMP JUMPDEST PUSH1 0x40 MLOAD DUP1 SWAP2 SUB SWAP1 REVERT JUMPDEST PUSH2 0xFF2 PUSH8 0x8CAF22A1373F3880 PUSH1 0xC0 SHL PUSH2 0x10AF JUMP JUMPDEST PUSH2 0x1006 PUSH8 0xDCF215AF85A3EBA8 PUSH1 0xC0 SHL PUSH2 0x10AF JUMP JUMPDEST PUSH2 0x101A PUSH8 0xA940D35937BF97F4 PUSH1 0xC0 SHL PUSH2 0x10AF JUMP JUMPDEST DUP1 PUSH1 0x0 ADD DUP1 SLOAD PUSH2 0x1029 SWAP1 PUSH2 0x1A43 JUMP JUMPDEST DUP1 PUSH1 0x1F ADD PUSH1 0x20 DUP1 SWAP2 DIV MUL PUSH1 0x20 ADD PUSH1 0x40 MLOAD SWAP1 DUP2 ADD PUSH1 0x40 MSTORE DUP1 SWAP3 SWAP2 SWAP1 DUP2 DUP2 MSTORE PUSH1 0x20 ADD DUP3 DUP1 SLOAD PUSH2 0x1055 SWAP1 PUSH2 0x1A43 JUMP JUMPDEST DUP1 ISZERO PUSH2 0x10A2 JUMPI DUP1 PUSH1 0x1F LT PUSH2 0x1077 JUMPI PUSH2 0x100 DUP1 DUP4 SLOAD DIV MUL DUP4 MSTORE SWAP2 PUSH1 0x20 ADD SWAP2 PUSH2 0x10A2 JUMP JUMPDEST DUP3 ADD SWAP2 SWAP1 PUSH1 0x0 MSTORE PUSH1 0x20 PUSH1 0x0 KECCAK256 SWAP1 JUMPDEST DUP2 SLOAD DUP2 MSTORE SWAP1 PUSH1 0x1 ADD SWAP1 PUSH1 0x20 ADD DUP1 DUP4 GT PUSH2 0x1085 JUMPI DUP3 SWAP1 SUB PUSH1 0x1F AND DUP3 ADD SWAP2 JUMPDEST POP POP POP POP POP SWAP2 POP POP SWAP2 SWAP1 POP JUMP JUMPDEST POP JUMP JUMPDEST PUSH1 0x0 PUSH2 0x10C8 PUSH8 0x2C7D74C73880A143 PUSH1 0xC0 SHL PUSH2 0x10AF JUMP JUMPDEST PUSH2 0x10DC PUSH8 0x24A8E9F6180C57A0 PUSH1 0xC0 SHL PUSH2 0x10AF JUMP JUMPDEST PUSH2 0x10F0 PUSH8 0xCC902C3CA9106371 PUSH1 0xC0 SHL PUSH2 0x10AF JUMP JUMPDEST PUSH1 0x0 PUSH20 0xFFFFFFFFFFFFFFFFFFFFFFFFFFFFFFFFFFFFFFFF AND PUSH1 0x0 DUP1 DUP5 DUP2 MSTORE PUSH1 0x20 ADD SWAP1 DUP2 MSTORE PUSH1 0x20 ADD PUSH1 0x0 KECCAK256 PUSH1 0x1 ADD PUSH1 0x0 SWAP1 SLOAD SWAP1 PUSH2 0x100 EXP SWAP1 DIV PUSH20 0xFFFFFFFFFFFFFFFFFFFFFFFFFFFFFFFFFFFFFFFF AND PUSH20 0xFFFFFFFFFFFFFFFFFFFFFFFFFFFFFFFFFFFFFFFF AND EQ ISZERO SWAP1 POP SWAP2 SWAP1 POP JUMP JUMPDEST PUSH1 0x0 PUSH1 0x1 SWAP1 POP SWAP2 SWAP1 POP JUMP JUMPDEST PUSH1 0x0 PUSH2 0x117E PUSH8 0x72325D9588573873 PUSH1 0xC0 SHL PUSH2 0x10AF JUMP JUMPDEST PUSH2 0x1192 PUSH8 0xD30C73093B3D2061 PUSH1 0xC0 SHL PUSH2 0x10AF JUMP JUMPDEST PUSH2 0x11A6 PUSH8 0x9DCDACF42CBA05AB PUSH1 0xC0 SHL PUSH2 0x10AF JUMP JUMPDEST PUSH1 0x0 DUP1 PUSH1 0x0 DUP6 DUP2 MSTORE PUSH1 0x20 ADD SWAP1 DUP2 MSTORE PUSH1 0x20 ADD PUSH1 0x0 KECCAK256 SWAP1 POP PUSH2 0x11D0 PUSH8 0x3DF67AF34B6C1347 PUSH1 0xC0 SHL PUSH2 0x10AF JUMP JUMPDEST PUSH2 0x11E4 PUSH8 0x4F3822A84138F34 PUSH1 0xC0 SHL PUSH2 0x10AF JUMP JUMPDEST PUSH1 0x0 JUMPDEST DUP2 PUSH1 0x2 ADD DUP1 SLOAD SWAP1 POP DUP2 LT ISZERO PUSH2 0x12F9 JUMPI PUSH2 0x120A PUSH8 0xBDBB787063DF2F06 PUSH1 0xC0 SHL PUSH2 0x10AF JUMP JUMPDEST PUSH2 0x121E PUSH8 0xA9FCF96A7282F2B1 PUSH1 0xC0 SHL PUSH2 0x10AF JUMP JUMPDEST DUP4 PUSH20 0xFFFFFFFFFFFFFFFFFFFFFFFFFFFFFFFFFFFFFFFF AND DUP3 PUSH1 0x2 ADD DUP3 DUP2 SLOAD DUP2 LT PUSH2 0x124B JUMPI PUSH2 0x124A PUSH2 0x1DF4 JUMP JUMPDEST JUMPDEST SWAP1 PUSH1 0x0 MSTORE PUSH1 0x20 PUSH1 0x0 KECCAK256 ADD PUSH1 0x0 SWAP1 SLOAD SWAP1 PUSH2 0x100 EXP SWAP1 DIV PUSH20 0xFFFFFFFFFFFFFFFFFFFFFFFFFFFFFFFFFFFFFFFF AND PUSH20 0xFFFFFFFFFFFFFFFFFFFFFFFFFFFFFFFFFFFFFFFF AND SUB PUSH2 0x12D8 JUMPI PUSH2 0x12A5 PUSH8 0x772B5B352D34B805 PUSH1 0xC0 SHL PUSH2 0x10AF JUMP JUMPDEST PUSH2 0x12B9 PUSH8 0xF19E94601FEEC306 PUSH1 0xC0 SHL PUSH2 0x10AF JUMP JUMPDEST PUSH2 0x12CD PUSH8 0x9257AC461A18EC83 PUSH1 0xC0 SHL PUSH2 0x10AF JUMP JUMPDEST PUSH1 0x1 SWAP3 POP POP POP PUSH2 0x1328 JUMP JUMPDEST PUSH2 0x12EC PUSH8 0xF91931CB154A9EDA PUSH1 0xC0 SHL PUSH2 0x10AF JUMP JUMPDEST DUP1 DUP1 PUSH1 0x1 ADD SWAP2 POP POP PUSH2 0x11E7 JUMP JUMPDEST POP PUSH2 0x130E PUSH8 0x79B196F31E6D69A0 PUSH1 0xC0 SHL PUSH2 0x10AF JUMP JUMPDEST PUSH2 0x1322 PUSH8 0x35B648F3D0428878 PUSH1 0xC0 SHL PUSH2 0x10AF JUMP JUMPDEST PUSH1 0x0 SWAP2 POP POP JUMPDEST SWAP3 SWAP2 POP POP JUMP JUMPDEST DUP3 DUP1 SLOAD DUP3 DUP3 SSTORE SWAP1 PUSH1 0x0 MSTORE PUSH1 0x20 PUSH1 0x0 KECCAK256 SWAP1 DUP2 ADD SWAP3 DUP3 ISZERO PUSH2 0x13A7 JUMPI SWAP2 PUSH1 0x20 MUL DUP3 ADD JUMPDEST DUP3 DUP2 GT ISZERO PUSH2 0x13A6 JUMPI DUP3 MLOAD DUP3 PUSH1 0x0 PUSH2 0x100 EXP DUP2 SLOAD DUP2 PUSH20 0xFFFFFFFFFFFFFFFFFFFFFFFFFFFFFFFFFFFFFFFF MUL NOT AND SWAP1 DUP4 PUSH20 0xFFFFFFFFFFFFFFFFFFFFFFFFFFFFFFFFFFFFFFFF AND MUL OR SWAP1 SSTORE POP SWAP2 PUSH1 0x20 ADD SWAP2 SWAP1 PUSH1 0x1 ADD SWAP1 PUSH2 0x134E JUMP JUMPDEST JUMPDEST POP SWAP1 POP PUSH2 0x13B4 SWAP2 SWAP1 PUSH2 0x1419 JUMP JUMPDEST POP SWAP1 JUMP JUMPDEST POP DUP1 SLOAD PUSH1 0x0 DUP3 SSTORE SWAP1 PUSH1 0x0 MSTORE PUSH1 0x20 PUSH1 0x0 KECCAK256 SWAP1 DUP2 ADD SWAP1 PUSH2 0x13D6 SWAP2 SWAP1 PUSH2 0x1419 JUMP JUMPDEST POP JUMP JUMPDEST POP DUP1 SLOAD PUSH2 0x13E5 SWAP1 PUSH2 0x1A43 JUMP JUMPDEST PUSH1 0x0 DUP3 SSTORE DUP1 PUSH1 0x1F LT PUSH2 0x13F7 JUMPI POP PUSH2 0x1416 JUMP JUMPDEST PUSH1 0x1F ADD PUSH1 0x20 SWAP1 DIV SWAP1 PUSH1 0x0 MSTORE PUSH1 0x20 PUSH1 0x0 KECCAK256 SWAP1 DUP2 ADD SWAP1 PUSH2 0x1415 SWAP2 SWAP1 PUSH2 0x1419 JUMP JUMPDEST JUMPDEST POP JUMP JUMPDEST JUMPDEST DUP1 DUP3 GT ISZERO PUSH2 0x1432 JUMPI PUSH1 0x0 DUP2 PUSH1 0x0 SWAP1 SSTORE POP PUSH1 0x1 ADD PUSH2 0x141A JUMP JUMPDEST POP SWAP1 JUMP JUMPDEST PUSH1 0x0 PUSH1 0x40 MLOAD SWAP1 POP SWAP1 JUMP JUMPDEST PUSH1 0x0 DUP1 REVERT JUMPDEST PUSH1 0x0 DUP1 REVERT JUMPDEST PUSH1 0x0 DUP1 REVERT JUMPDEST PUSH1 0x0 DUP1 REVERT JUMPDEST PUSH1 0x0 PUSH1 0x1F NOT PUSH1 0x1F DUP4 ADD AND SWAP1 POP SWAP2 SWAP1 POP JUMP JUMPDEST PUSH32 0x4E487B7100000000000000000000000000000000000000000000000000000000 PUSH1 0x0 MSTORE PUSH1 0x41 PUSH1 0x4 MSTORE PUSH1 0x24 PUSH1 0x0 REVERT JUMPDEST PUSH2 0x149D DUP3 PUSH2 0x1454 JUMP JUMPDEST DUP2 ADD DUP2 DUP2 LT PUSH8 0xFFFFFFFFFFFFFFFF DUP3 GT OR ISZERO PUSH2 0x14BC JUMPI PUSH2 0x14BB PUSH2 0x1465 JUMP JUMPDEST JUMPDEST DUP1 PUSH1 0x40 MSTORE POP POP POP JUMP JUMPDEST PUSH1 0x0 PUSH2 0x14CF PUSH2 0x1436 JUMP JUMPDEST SWAP1 POP PUSH2 0x14DB DUP3 DUP3 PUSH2 0x1494 JUMP JUMPDEST SWAP2 SWAP1 POP JUMP JUMPDEST PUSH1 0x0 PUSH8 0xFFFFFFFFFFFFFFFF DUP3 GT ISZERO PUSH2 0x14FB JUMPI PUSH2 0x14FA PUSH2 0x1465 JUMP JUMPDEST JUMPDEST PUSH2 0x1504 DUP3 PUSH2 0x1454 JUMP JUMPDEST SWAP1 POP PUSH1 0x20 DUP2 ADD SWAP1 POP SWAP2 SWAP1 POP JUMP JUMPDEST DUP3 DUP2 DUP4 CALLDATACOPY PUSH1 0x0 DUP4 DUP4 ADD MSTORE POP POP POP JUMP JUMPDEST PUSH1 0x0 PUSH2 0x1533 PUSH2 0x152E DUP5 PUSH2 0x14E0 JUMP JUMPDEST PUSH2 0x14C5 JUMP JUMPDEST SWAP1 POP DUP3 DUP2 MSTORE PUSH1 0x20 DUP2 ADD DUP5 DUP5 DUP5 ADD GT ISZERO PUSH2 0x154F JUMPI PUSH2 0x154E PUSH2 0x144F JUMP JUMPDEST JUMPDEST PUSH2 0x155A DUP5 DUP3 DUP6 PUSH2 0x1511 JUMP JUMPDEST POP SWAP4 SWAP3 POP POP POP JUMP JUMPDEST PUSH1 0x0 DUP3 PUSH1 0x1F DUP4 ADD SLT PUSH2 0x1577 JUMPI PUSH2 0x1576 PUSH2 0x144A JUMP JUMPDEST JUMPDEST DUP2 CALLDATALOAD PUSH2 0x1587 DUP5 DUP3 PUSH1 0x20 DUP7 ADD PUSH2 0x1520 JUMP JUMPDEST SWAP2 POP POP SWAP3 SWAP2 POP POP JUMP JUMPDEST PUSH1 0x0 DUP2 ISZERO ISZERO SWAP1 POP SWAP2 SWAP1 POP JUMP JUMPDEST PUSH2 0x15A5 DUP2 PUSH2 0x1590 JUMP JUMPDEST DUP2 EQ PUSH2 0x15B0 JUMPI PUSH1 0x0 DUP1 REVERT JUMPDEST POP JUMP JUMPDEST PUSH1 0x0 DUP2 CALLDATALOAD SWAP1 POP PUSH2 0x15C2 DUP2 PUSH2 0x159C JUMP JUMPDEST SWAP3 SWAP2 POP POP JUMP JUMPDEST PUSH1 0x0 DUP1 PUSH1 0x40 DUP4 DUP6 SUB SLT ISZERO PUSH2 0x15DF JUMPI PUSH2 0x15DE PUSH2 0x1440 JUMP JUMPDEST JUMPDEST PUSH1 0x0 DUP4 ADD CALLDATALOAD PUSH8 0xFFFFFFFFFFFFFFFF DUP2 GT ISZERO PUSH2 0x15FD JUMPI PUSH2 0x15FC PUSH2 0x1445 JUMP JUMPDEST JUMPDEST PUSH2 0x1609 DUP6 DUP3 DUP7 ADD PUSH2 0x1562 JUMP JUMPDEST SWAP3 POP POP PUSH1 0x20 PUSH2 0x161A DUP6 DUP3 DUP7 ADD PUSH2 0x15B3 JUMP JUMPDEST SWAP2 POP POP SWAP3 POP SWAP3 SWAP1 POP JUMP JUMPDEST PUSH1 0x0 DUP2 SWAP1 POP SWAP2 SWAP1 POP JUMP JUMPDEST PUSH2 0x1637 DUP2 PUSH2 0x1624 JUMP JUMPDEST DUP2 EQ PUSH2 0x1642 JUMPI PUSH1 0x0 DUP1 REVERT JUMPDEST POP JUMP JUMPDEST PUSH1 0x0 DUP2 CALLDATALOAD SWAP1 POP PUSH2 0x1654 DUP2 PUSH2 0x162E JUMP JUMPDEST SWAP3 SWAP2 POP POP JUMP JUMPDEST PUSH1 0x0 PUSH8 0xFFFFFFFFFFFFFFFF DUP3 GT ISZERO PUSH2 0x1675 JUMPI PUSH2 0x1674 PUSH2 0x1465 JUMP JUMPDEST JUMPDEST PUSH1 0x20 DUP3 MUL SWAP1 POP PUSH1 0x20 DUP2 ADD SWAP1 POP SWAP2 SWAP1 POP JUMP JUMPDEST PUSH1 0x0 DUP1 REVERT JUMPDEST PUSH1 0x0 PUSH20 0xFFFFFFFFFFFFFFFFFFFFFFFFFFFFFFFFFFFFFFFF DUP3 AND SWAP1 POP SWAP2 SWAP1 POP JUMP JUMPDEST PUSH1 0x0 PUSH2 0x16B6 DUP3 PUSH2 0x168B JUMP JUMPDEST SWAP1 POP SWAP2 SWAP1 POP JUMP JUMPDEST PUSH2 0x16C6 DUP2 PUSH2 0x16AB JUMP JUMPDEST DUP2 EQ PUSH2 0x16D1 JUMPI PUSH1 0x0 DUP1 REVERT JUMPDEST POP JUMP JUMPDEST PUSH1 0x0 DUP2 CALLDATALOAD SWAP1 POP PUSH2 0x16E3 DUP2 PUSH2 0x16BD JUMP JUMPDEST SWAP3 SWAP2 POP POP JUMP JUMPDEST PUSH1 0x0 PUSH2 0x16FC PUSH2 0x16F7 DUP5 PUSH2 0x165A JUMP JUMPDEST PUSH2 0x14C5 JUMP JUMPDEST SWAP1 POP DUP1 DUP4 DUP3 MSTORE PUSH1 0x20 DUP3 ADD SWAP1 POP PUSH1 0x20 DUP5 MUL DUP4 ADD DUP6 DUP2 GT ISZERO PUSH2 0x171F JUMPI PUSH2 0x171E PUSH2 0x1686 JUMP JUMPDEST JUMPDEST DUP4 JUMPDEST DUP2 DUP2 LT ISZERO PUSH2 0x1748 JUMPI DUP1 PUSH2 0x1734 DUP9 DUP3 PUSH2 0x16D4 JUMP JUMPDEST DUP5 MSTORE PUSH1 0x20 DUP5 ADD SWAP4 POP POP PUSH1 0x20 DUP2 ADD SWAP1 POP PUSH2 0x1721 JUMP JUMPDEST POP POP POP SWAP4 SWAP3 POP POP POP JUMP JUMPDEST PUSH1 0x0 DUP3 PUSH1 0x1F DUP4 ADD SLT PUSH2 0x1767 JUMPI PUSH2 0x1766 PUSH2 0x144A JUMP JUMPDEST JUMPDEST DUP2 CALLDATALOAD PUSH2 0x1777 DUP5 DUP3 PUSH1 0x20 DUP7 ADD PUSH2 0x16E9 JUMP JUMPDEST SWAP2 POP POP SWAP3 SWAP2 POP POP JUMP JUMPDEST PUSH1 0x0 DUP1 PUSH1 0x0 PUSH1 0x60 DUP5 DUP7 SUB SLT ISZERO PUSH2 0x1799 JUMPI PUSH2 0x1798 PUSH2 0x1440 JUMP JUMPDEST JUMPDEST PUSH1 0x0 PUSH2 0x17A7 DUP7 DUP3 DUP8 ADD PUSH2 0x1645 JUMP JUMPDEST SWAP4 POP POP PUSH1 0x20 PUSH2 0x17B8 DUP7 DUP3 DUP8 ADD PUSH2 0x15B3 JUMP JUMPDEST SWAP3 POP POP PUSH1 0x40 DUP5 ADD CALLDATALOAD PUSH8 0xFFFFFFFFFFFFFFFF DUP2 GT ISZERO PUSH2 0x17D9 JUMPI PUSH2 0x17D8 PUSH2 0x1445 JUMP JUMPDEST JUMPDEST PUSH2 0x17E5 DUP7 DUP3 DUP8 ADD PUSH2 0x1752 JUMP JUMPDEST SWAP2 POP POP SWAP3 POP SWAP3 POP SWAP3 JUMP JUMPDEST PUSH1 0x0 DUP2 MLOAD SWAP1 POP SWAP2 SWAP1 POP JUMP JUMPDEST PUSH1 0x0 DUP3 DUP3 MSTORE PUSH1 0x20 DUP3 ADD SWAP1 POP SWAP3 SWAP2 POP POP JUMP JUMPDEST PUSH1 0x0 DUP2 SWAP1 POP PUSH1 0x20 DUP3 ADD SWAP1 POP SWAP2 SWAP1 POP JUMP JUMPDEST PUSH2 0x1824 DUP2 PUSH2 0x1624 JUMP JUMPDEST DUP3 MSTORE POP POP JUMP JUMPDEST PUSH1 0x0 PUSH2 0x1836 DUP4 DUP4 PUSH2 0x181B JUMP JUMPDEST PUSH1 0x20 DUP4 ADD SWAP1 POP SWAP3 SWAP2 POP POP JUMP JUMPDEST PUSH1 0x0 PUSH1 0x20 DUP3 ADD SWAP1 POP SWAP2 SWAP1 POP JUMP JUMPDEST PUSH1 0x0 PUSH2 0x185A DUP3 PUSH2 0x17EF JUMP JUMPDEST PUSH2 0x1864 DUP2 DUP6 PUSH2 0x17FA JUMP JUMPDEST SWAP4 POP PUSH2 0x186F DUP4 PUSH2 0x180B JUMP JUMPDEST DUP1 PUSH1 0x0 JUMPDEST DUP4 DUP2 LT ISZERO PUSH2 0x18A0 JUMPI DUP2 MLOAD PUSH2 0x1887 DUP9 DUP3 PUSH2 0x182A JUMP JUMPDEST SWAP8 POP PUSH2 0x1892 DUP4 PUSH2 0x1842 JUMP JUMPDEST SWAP3 POP POP PUSH1 0x1 DUP2 ADD SWAP1 POP PUSH2 0x1873 JUMP JUMPDEST POP DUP6 SWAP4 POP POP POP POP SWAP3 SWAP2 POP POP JUMP JUMPDEST PUSH1 0x0 PUSH1 0x20 DUP3 ADD SWAP1 POP DUP2 DUP2 SUB PUSH1 0x0 DUP4 ADD MSTORE PUSH2 0x18C7 DUP2 DUP5 PUSH2 0x184F JUMP JUMPDEST SWAP1 POP SWAP3 SWAP2 POP POP JUMP JUMPDEST PUSH1 0x0 PUSH1 0x20 DUP3 DUP5 SUB SLT ISZERO PUSH2 0x18E5 JUMPI PUSH2 0x18E4 PUSH2 0x1440 JUMP JUMPDEST JUMPDEST PUSH1 0x0 PUSH2 0x18F3 DUP5 DUP3 DUP6 ADD PUSH2 0x1645 JUMP JUMPDEST SWAP2 POP POP SWAP3 SWAP2 POP POP JUMP JUMPDEST PUSH1 0x0 DUP2 MLOAD SWAP1 POP SWAP2 SWAP1 POP JUMP JUMPDEST PUSH1 0x0 DUP3 DUP3 MSTORE PUSH1 0x20 DUP3 ADD SWAP1 POP SWAP3 SWAP2 POP POP JUMP JUMPDEST PUSH1 0x0 JUMPDEST DUP4 DUP2 LT ISZERO PUSH2 0x1936 JUMPI DUP1 DUP3 ADD MLOAD DUP2 DUP5 ADD MSTORE PUSH1 0x20 DUP2 ADD SWAP1 POP PUSH2 0x191B JUMP JUMPDEST PUSH1 0x0 DUP5 DUP5 ADD MSTORE POP POP POP POP JUMP JUMPDEST PUSH1 0x0 PUSH2 0x194D DUP3 PUSH2 0x18FC JUMP JUMPDEST PUSH2 0x1957 DUP2 DUP6 PUSH2 0x1907 JUMP JUMPDEST SWAP4 POP PUSH2 0x1967 DUP2 DUP6 PUSH1 0x20 DUP7 ADD PUSH2 0x1918 JUMP JUMPDEST PUSH2 0x1970 DUP2 PUSH2 0x1454 JUMP JUMPDEST DUP5 ADD SWAP2 POP POP SWAP3 SWAP2 POP POP JUMP JUMPDEST PUSH1 0x0 PUSH1 0x20 DUP3 ADD SWAP1 POP DUP2 DUP2 SUB PUSH1 0x0 DUP4 ADD MSTORE PUSH2 0x1995 DUP2 DUP5 PUSH2 0x1942 JUMP JUMPDEST SWAP1 POP SWAP3 SWAP2 POP POP JUMP JUMPDEST PUSH32 0x4E487B7100000000000000000000000000000000000000000000000000000000 PUSH1 0x0 MSTORE PUSH1 0x11 PUSH1 0x4 MSTORE PUSH1 0x24 PUSH1 0x0 REVERT JUMPDEST PUSH1 0x0 PUSH2 0x19D7 DUP3 PUSH2 0x1624 JUMP JUMPDEST SWAP2 POP PUSH32 0xFFFFFFFFFFFFFFFFFFFFFFFFFFFFFFFFFFFFFFFFFFFFFFFFFFFFFFFFFFFFFFFF DUP3 SUB PUSH2 0x1A09 JUMPI PUSH2 0x1A08 PUSH2 0x199D JUMP JUMPDEST JUMPDEST PUSH1 0x1 DUP3 ADD SWAP1 POP SWAP2 SWAP1 POP JUMP JUMPDEST PUSH32 0x4E487B7100000000000000000000000000000000000000000000000000000000 PUSH1 0x0 MSTORE PUSH1 0x22 PUSH1 0x4 MSTORE PUSH1 0x24 PUSH1 0x0 REVERT JUMPDEST PUSH1 0x0 PUSH1 0x2 DUP3 DIV SWAP1 POP PUSH1 0x1 DUP3 AND DUP1 PUSH2 0x1A5B JUMPI PUSH1 0x7F DUP3 AND SWAP2 POP JUMPDEST PUSH1 0x20 DUP3 LT DUP2 SUB PUSH2 0x1A6E JUMPI PUSH2 0x1A6D PUSH2 0x1A14 JUMP JUMPDEST JUMPDEST POP SWAP2 SWAP1 POP JUMP JUMPDEST PUSH1 0x0 DUP2 SWAP1 POP DUP2 PUSH1 0x0 MSTORE PUSH1 0x20 PUSH1 0x0 KECCAK256 SWAP1 POP SWAP2 SWAP1 POP JUMP JUMPDEST PUSH1 0x0 PUSH1 0x20 PUSH1 0x1F DUP4 ADD DIV SWAP1 POP SWAP2 SWAP1 POP JUMP JUMPDEST PUSH1 0x0 DUP3 DUP3 SHL SWAP1 POP SWAP3 SWAP2 POP POP JUMP JUMPDEST PUSH1 0x0 PUSH1 0x8 DUP4 MUL PUSH2 0x1AD6 PUSH32 0xFFFFFFFFFFFFFFFFFFFFFFFFFFFFFFFFFFFFFFFFFFFFFFFFFFFFFFFFFFFFFFFF DUP3 PUSH2 0x1A99 JUMP JUMPDEST PUSH2 0x1AE0 DUP7 DUP4 PUSH2 0x1A99 JUMP JUMPDEST SWAP6 POP DUP1 NOT DUP5 AND SWAP4 POP DUP1 DUP7 AND DUP5 OR SWAP3 POP POP POP SWAP4 SWAP3 POP POP POP JUMP JUMPDEST PUSH1 0x0 DUP2 SWAP1 POP SWAP2 SWAP1 POP JUMP JUMPDEST PUSH1 0x0 PUSH2 0x1B1D PUSH2 0x1B18 PUSH2 0x1B13 DUP5 PUSH2 0x1624 JUMP JUMPDEST PUSH2 0x1AF8 JUMP JUMPDEST PUSH2 0x1624 JUMP JUMPDEST SWAP1 POP SWAP2 SWAP1 POP JUMP JUMPDEST PUSH1 0x0 DUP2 SWAP1 POP SWAP2 SWAP1 POP JUMP JUMPDEST PUSH2 0x1B37 DUP4 PUSH2 0x1B02 JUMP JUMPDEST PUSH2 0x1B4B PUSH2 0x1B43 DUP3 PUSH2 0x1B24 JUMP JUMPDEST DUP5 DUP5 SLOAD PUSH2 0x1AA6 JUMP JUMPDEST DUP3 SSTORE POP POP POP POP JUMP JUMPDEST PUSH1 0x0 SWAP1 JUMP JUMPDEST PUSH2 0x1B60 PUSH2 0x1B53 JUMP JUMPDEST PUSH2 0x1B6B DUP2 DUP5 DUP5 PUSH2 0x1B2E JUMP JUMPDEST POP POP POP JUMP JUMPDEST JUMPDEST DUP2 DUP2 LT ISZERO PUSH2 0x1B8F JUMPI PUSH2 0x1B84 PUSH1 0x0 DUP3 PUSH2 0x1B58 JUMP JUMPDEST PUSH1 0x1 DUP2 ADD SWAP1 POP PUSH2 0x1B71 JUMP JUMPDEST POP POP JUMP JUMPDEST PUSH1 0x1F DUP3 GT ISZERO PUSH2 0x1BD4 JUMPI PUSH2 0x1BA5 DUP2 PUSH2 0x1A74 JUMP JUMPDEST PUSH2 0x1BAE DUP5 PUSH2 0x1A89 JUMP JUMPDEST DUP2 ADD PUSH1 0x20 DUP6 LT ISZERO PUSH2 0x1BBD JUMPI DUP2 SWAP1 POP JUMPDEST PUSH2 0x1BD1 PUSH2 0x1BC9 DUP6 PUSH2 0x1A89 JUMP JUMPDEST DUP4 ADD DUP3 PUSH2 0x1B70 JUMP JUMPDEST POP POP JUMPDEST POP POP POP JUMP JUMPDEST PUSH1 0x0 DUP3 DUP3 SHR SWAP1 POP SWAP3 SWAP2 POP POP JUMP JUMPDEST PUSH1 0x0 PUSH2 0x1BF7 PUSH1 0x0 NOT DUP5 PUSH1 0x8 MUL PUSH2 0x1BD9 JUMP JUMPDEST NOT DUP1 DUP4 AND SWAP2 POP POP SWAP3 SWAP2 POP POP JUMP JUMPDEST PUSH1 0x0 PUSH2 0x1C10 DUP4 DUP4 PUSH2 0x1BE6 JUMP JUMPDEST SWAP2 POP DUP3 PUSH1 0x2 MUL DUP3 OR SWAP1 POP SWAP3 SWAP2 POP POP JUMP JUMPDEST PUSH2 0x1C29 DUP3 PUSH2 0x18FC JUMP JUMPDEST PUSH8 0xFFFFFFFFFFFFFFFF DUP2 GT ISZERO PUSH2 0x1C42 JUMPI PUSH2 0x1C41 PUSH2 0x1465 JUMP JUMPDEST JUMPDEST PUSH2 0x1C4C DUP3 SLOAD PUSH2 0x1A43 JUMP JUMPDEST PUSH2 0x1C57 DUP3 DUP3 DUP6 PUSH2 0x1B93 JUMP JUMPDEST PUSH1 0x0 PUSH1 0x20 SWAP1 POP PUSH1 0x1F DUP4 GT PUSH1 0x1 DUP2 EQ PUSH2 0x1C8A JUMPI PUSH1 0x0 DUP5 ISZERO PUSH2 0x1C78 JUMPI DUP3 DUP8 ADD MLOAD SWAP1 POP JUMPDEST PUSH2 0x1C82 DUP6 DUP3 PUSH2 0x1C04 JUMP JUMPDEST DUP7 SSTORE POP PUSH2 0x1CEA JUMP JUMPDEST PUSH1 0x1F NOT DUP5 AND PUSH2 0x1C98 DUP7 PUSH2 0x1A74 JUMP JUMPDEST PUSH1 0x0 JUMPDEST DUP3 DUP2 LT ISZERO PUSH2 0x1CC0 JUMPI DUP5 DUP10 ADD MLOAD DUP3 SSTORE PUSH1 0x1 DUP3 ADD SWAP2 POP PUSH1 0x20 DUP6 ADD SWAP5 POP PUSH1 0x20 DUP2 ADD SWAP1 POP PUSH2 0x1C9B JUMP JUMPDEST DUP7 DUP4 LT ISZERO PUSH2 0x1CDD JUMPI DUP5 DUP10 ADD MLOAD PUSH2 0x1CD9 PUSH1 0x1F DUP10 AND DUP3 PUSH2 0x1BE6 JUMP JUMPDEST DUP4 SSTORE POP JUMPDEST PUSH1 0x1 PUSH1 0x2 DUP9 MUL ADD DUP9 SSTORE POP POP POP JUMPDEST POP POP POP POP POP POP JUMP JUMPDEST PUSH2 0x1CFB DUP2 PUSH2 0x1624 JUMP JUMPDEST DUP3 MSTORE POP POP JUMP JUMPDEST PUSH1 0x0 PUSH1 0x20 DUP3 ADD SWAP1 POP PUSH2 0x1D16 PUSH1 0x0 DUP4 ADD DUP5 PUSH2 0x1CF2 JUMP JUMPDEST SWAP3 SWAP2 POP POP JUMP JUMPDEST PUSH32 0x4F6E6C7920746865206F776E65722063616E20646F2074686973000000000000 PUSH1 0x0 DUP3 ADD MSTORE POP JUMP JUMPDEST PUSH1 0x0 PUSH2 0x1D52 PUSH1 0x1A DUP4 PUSH2 0x1907 JUMP JUMPDEST SWAP2 POP PUSH2 0x1D5D DUP3 PUSH2 0x1D1C JUMP JUMPDEST PUSH1 0x20 DUP3 ADD SWAP1 POP SWAP2 SWAP1 POP JUMP JUMPDEST PUSH1 0x0 PUSH1 0x20 DUP3 ADD SWAP1 POP DUP2 DUP2 SUB PUSH1 0x0 DUP4 ADD MSTORE PUSH2 0x1D81 DUP2 PUSH2 0x1D45 JUMP JUMPDEST SWAP1 POP SWAP2 SWAP1 POP JUMP JUMPDEST PUSH32 0x546865206E6F746520646F6573206E6F74206578697374000000000000000000 PUSH1 0x0 DUP3 ADD MSTORE POP JUMP JUMPDEST PUSH1 0x0 PUSH2 0x1DBE PUSH1 0x17 DUP4 PUSH2 0x1907 JUMP JUMPDEST SWAP2 POP PUSH2 0x1DC9 DUP3 PUSH2 0x1D88 JUMP JUMPDEST PUSH1 0x20 DUP3 ADD SWAP1 POP SWAP2 SWAP1 POP JUMP JUMPDEST PUSH1 0x0 PUSH1 0x20 DUP3 ADD SWAP1 POP DUP2 DUP2 SUB PUSH1 0x0 DUP4 ADD MSTORE PUSH2 0x1DED DUP2 PUSH2 0x1DB1 JUMP JUMPDEST SWAP1 POP SWAP2 SWAP1 POP JUMP JUMPDEST PUSH32 0x4E487B7100000000000000000000000000000000000000000000000000000000 PUSH1 0x0 MSTORE PUSH1 0x32 PUSH1 0x4 MSTORE PUSH1 0x24 PUSH1 0x0 REVERT JUMPDEST PUSH1 0x0 PUSH2 0x1E2E DUP3 PUSH2 0x1624 JUMP JUMPDEST SWAP2 POP PUSH2 0x1E39 DUP4 PUSH2 0x1624 JUMP JUMPDEST SWAP3 POP DUP3 DUP3 SUB SWAP1 POP DUP2 DUP2 GT ISZERO PUSH2 0x1E51 JUMPI PUSH2 0x1E50 PUSH2 0x199D JUMP JUMPDEST JUMPDEST SWAP3 SWAP2 POP POP JUMP JUMPDEST PUSH32 0x4E487B7100000000000000000000000000000000000000000000000000000000 PUSH1 0x0 MSTORE PUSH1 0x31 PUSH1 0x4 MSTORE PUSH1 0x24 PUSH1 0x0 REVERT JUMPDEST PUSH32 0x596F7520646F206E6F742068617665207065726D697373696F6E20746F207265 PUSH1 0x0 DUP3 ADD MSTORE PUSH32 0x61642074686973206E6F74650000000000000000000000000000000000000000 PUSH1 0x20 DUP3 ADD MSTORE POP JUMP JUMPDEST PUSH1 0x0 PUSH2 0x1EE2 PUSH1 0x2C DUP4 PUSH2 0x1907 JUMP JUMPDEST SWAP2 POP PUSH2 0x1EED DUP3 PUSH2 0x1E86 JUMP JUMPDEST PUSH1 0x40 DUP3 ADD SWAP1 POP SWAP2 SWAP1 POP JUMP JUMPDEST PUSH1 0x0 PUSH1 0x20 DUP3 ADD SWAP1 POP DUP2 DUP2 SUB PUSH1 0x0 DUP4 ADD MSTORE PUSH2 0x1F11 DUP2 PUSH2 0x1ED5 JUMP JUMPDEST SWAP1 POP SWAP2 SWAP1 POP JUMP INVALID LOG2 PUSH5 0x6970667358 0x22 SLT KECCAK256 CREATE2 SWAP1 0xE8 POP SELFDESTRUCT 0xC7 0xA8 0xDE 0xCF 0xF PUSH5 0x4DD87343AE SDIV 0xFC 0xBF 0xEF 0xEE 0xE6 0xD7 PUSH1 0xA6 SWAP16 PUSH28 0xB40151802364736F6C63430008180033000000000000000000000000 "},"methodIdentifiers":{"createNote(string,bool)":"1b08e915","deleteNote(uint256)":"c47177f4","getUserNotes()":"b4c780a3","readNote(uint256)":"d311651a","updateSharing(uint256,bool,address[])":"27af0f18"}}}}}